:100000008EC0A8C0A7C0A6C0A5C0A4C0A3C0A2C0DF
:10001000A1C070C4E1C49EC09DC09CC09BC0777746
:1000200077777767570700000000FF0000000000A7
:100030007ECFFF7E00003C7EE7FFFFFF7E3C7776B1
:1000400075707767570700183C66663C1800589C27
:100050003C3E3E137FB7B77F533E9E5C1C188063C7
:10006000E097F00FE80FEC1F1E17BF3B3FDA3FDAB7
:10007000BF7B1E37EC1FE897F067E00780030000A6
:100080000000E038E0312033202D607D307CB06C02
:10009000F0FC60FCC07D806D00C800000000000026
:1000A0000000000C200C201960BD30F8B0FCF03CC2
:1000B000607CC07D806100C0000000000000000086
:1000C00000000000000010009058B07418FE58F0B6
:1000D00078FE30F0E03EC01C000000000000000090
:1000E0000000000C107C906CB06C187E583E78308C
:1000F00030BEE0FEC0FE006C000C000000000000FE
:1001000000000000003020B820FD60E1303CB03C31
:10011000F0E060FCC0BD8039000000000000112448
:100120001FBECFE5D2E0DEBFCDBF10E0A0E6B0E05D
:10013000E0EEFCE102C005900D92A23CB107D9F7B8
:1001400021E0A2ECB0E001C01D92A33AB207E1F7B2
:1001500052DAC4CD55CFCF93C82F2DE036E649E112
:1001600050E06091C7007091C8008091C9009091E3
:10017000CA002CDDDC01CB01815A9C40A149B34C63
:10018000BC01CD01882799276093C7007093C800F0
:100190008093C9009093CA002C2F30E040E050E0DB
:1001A0004EDD862FCF91089590E120E030E08770FA
:1001B00067E8379887B966B9369A3699FECF44B161
:1001C00055B1240F351F9150A1F7C90124E0969530
:1001D00087952A95E1F708952F923F924F925F926B
:1001E0006F927F928F929F92AF92BF92CF92DF9247
:1001F000EF92FF920F931F93CF93DF93CDB7DEB7AC
:1002000067970FB6F894DEBF0FBECDBF6C015B01E0
:10021000F42E3801803891050CF091C0842F90E0C5
:1002200044275527481B590B4C155D050CF087C01A
:10023000603471050CF083C0D7FE06C05C2D51956B
:10024000598BC12CD12C01C0198AA601480F591F06
:10025000413851051CF030E8F32EFC18B7FE0DC0F4
:10026000B194A194B10853E0B594A7945A95E1F7DD
:1002700011E01A0DA12CB12C01C010E0822E869441
:1002800086948694A501420F511D413451054CF0CE
:10029000950143E0359527954A95E1F708E0021B63
:1002A00001C0082D212F30E03B8B2A8B3989232E6A
:1002B000312C912CAC01415051095D8B4C8B8F2D11
:1002C00090E09C01221933093F8B2E8B1017B8F553
:1002D000412E512CB2014A895B89641B750B83E066
:1002E000660F771F8A95E1F76A0D7B1DC601D9DB82
:1002F00049894F15E8F4242F30E0E11002C0C9010C
:1003000004C08C899D89821B930BB4014EDC840D43
:10031000951DF301E80FF91FE49122193309A1E0BB
:10032000B0E0AC0FBD1FA20FB31FEC934F5FE1CF46
:100330006E897F89CE010196CDDB1F5FC7CF67969F
:100340000FB6F894DEBF0FBECDBFDF91CF911F91E6
:100350000F91FF90EF90DF90CF90BF90AF909F9064
:100360008F907F906F905F904F903F902F90089567
:10037000282F30E0C90166E170E017DCFC01E95A82
:10038000FE4F83E0848781E1818B17868081918194
:1003900001969183808308959C018091630184304C
:1003A00059F080917901843051F080918F0184302F
:1003B000E1F482E090E005C080E090E002C081E0DE
:1003C00090E066E170E0F1DBFC01E95AFE4F83E06A
:1003D000220F331F8A95E1F7318320831382128223
:1003E00081E08787108A118A148608956F927F9220
:1003F0008F929F92AF92BF92CF92DF92EF92FF9235
:100400000F931F93CF93DF938C01C82FCF7383E09B
:10041000A2DE25E0922E980E8C2E712CEC2EF12C63
:100420008FE0E80EF11C66246394CC24C394D12C95
:10043000580188E0A80EB11CC82DD0E0EC16FD06CE
:100440000CF443C0C650DF4F188285E084DE811172
:1004500001C06882711036C0892D883058F4960129
:10046000082E01C0220F0A94EAF79881292B2883CD
:100470008F5FF3CF8AE06FDE811109C084E06BDE0D
:1004800001151105C1F092E0792E780E14C085E0B7
:1004900062DE811110C00115110569F082E05BDE9A
:1004A000811105C086E0891528F0939404C081E08D
:1004B000891508F49A9480E14EDE811104C0C501CB
:1004C0006BDF01C07A948394B7CFDF91CF911F91F6
:1004D0000F91FF90EF90DF90CF90BF90AF909F90E3
:1004E0008F907F906F900895CF9340E050E060E050
:1004F00070E08CE34DDA80E016DB40E050E060E035
:1005000070E08DE345DA80E00EDBE1E4F1E023E02A
:10051000248B82E0858BA7E5B1E054962C93549709
:1005200055968C93559794E01C969C931C979A969D
:100530002C939A979B968C939B9792969C939297C9
:100540002093970180939801D8969C9325E030E002
:100550003183208313821282148685871786108A3E
:10056000118AC1E0C687C38BE4EEF0E0C48BC58B73
:100570009487BC9AB99A80E090E038DF80E190E0FF
:1005800035DF80E290E032DF80E390E02FDF88E12A
:1005900090E09093A2018093A101EAE3F1E016823A
:1005A000C093A0011092E300118210821282C383D3
:1005B0001ABC19BE10BE1CBC18BECF9108959091F4
:1005C000E300911111C01092CD001092CE00109254
:1005D000CF001092D00010929B0180939A0181E08D
:1005E00080939D018093E30008954F925F926F92F4
:1005F0007F928F929F92AF92BF92CF92DF92EF92B3
:10060000FF920F93CF93DF936B017C0149015A0155
:10061000672B682B692B41F4D0E0CCE2CC2EDD2493
:10062000D394E12CF12C01C0D1E060E074E284EFBE
:1006300090E0A7019601220F331F441F551FFFDAD8
:10064000002311F0C1E03DC0213081E038074105B1
:100650005105F0F1A3E05695479537952795AA9552
:10066000D1F7213081E038074105510598F1F3E0D9
:100670005695479537952795FA95D1F7213081E022
:1006800038074105510540F1E2E056954795379509
:100690002795EA95D1F7213081E0380741055105CA
:1006A000E8F072E056954795379527957A95D1F7FA
:1006B000C5E015C0CF3099F0CF5F56954795379577
:1006C00027952F3F31054105510509F098F707C0DF
:1006D000C1E005C0C2E003C0C3E001C0C4E029011D
:1006E0003A0181E0481A510861087108C501B40156
:1006F000660F771F881F991FA7019601011113C06C
:1007000065DA28EE33E040E050E099DA2093CD003E
:100710003093CE004093CF005093D000DD2329F1D9
:1007200082E18ABD29C052DA28EE33E040E050E091
:1007300086DA2093D1003093D2004093D3005093B7
:10074000D40060E271EA87E090E0A701960177DAD1
:100750002093D5003093D6004093D7005093D80013
:10076000DD2381F080E18CBD11C08AB582608ABD35
:100770008AB58F7E8ABDC198C3BF12BE49BC89B7F6
:1007800080610AC08CB580718CBDC498C068C0BF40
:100790001FBC4DBC89B7806289BFDF91CF910F919B
:1007A000FF90EF90DF90CF90BF90AF909F908F9091
:1007B0007F906F905F904F900895FF920F931F93DB
:1007C000CF93DF93FC01F680F1100DC04091D10072
:1007D0005091D2006091D3007091D400452B462BEC
:1007E000472BB1F081C0F1E0FF127EC04091CD00F7
:1007F0005091CE006091CF007091D000452B462BD8
:10080000472B09F071C02091E300213009F06CC042
:10081000EC018B81811136C08C819D8163E070E099
:10082000FAD97D836C839B0140E050E0F11002C057
:1008300001E001C000E060E070E0CB01D6DE1A818B
:100840001F5F1A83888190E063E070E0AED9029662
:1008500028DA1817A0F01A8289818F5F89839E8118
:10086000913019F41092E30004C08C3010F081E054
:100870008983E981F0E0E758FF4F8081888381E038
:100880008B8332C0813081F5888190E063E070E035
:100890008CD90FDAF11005C000916100109162004F
:1008A00002C008EE13E02A8130E0220F331F820FCE
:1008B000931FFFD9BC017F71892F99278295869557
:1008C0008770980102C0369527958A95E2F73D8397
:1008D0002C8340E050E080E090E0F11002C001E0A5
:1008E00001C000E082DE1B82DF91CF911F910F914A
:1008F000FF9008951F920F920FB60F9211244F93FD
:100900005F936F937F938F939F93AF93BF938091E8
:10091000D1009091D200A091D300B091D400892B46
:100920008A2B8B2B81F18091D1009091D200A091E4
:10093000D300B091D400181619061A061B061CF530
:100940008091D1009091D200A091D300B091D400B9
:100950000197A109B1098093D1009093D200A0938F
:10096000D300B093D4008091D1009091D200A09197
:10097000D300B091D400892B8A2B8B2B21F48CB51A
:100980008F7E8CBD1CC04091D5005091D6006091E7
:10099000D7007091D8008091D9009091DA00A09191
:1009A000DB00B091DC00840F951FA61FB71F80935A
:1009B000D9009093DA00A093DB00B093DC00BF91E4
:1009C000AF919F918F917F916F915F914F910F9018
:1009D0000FBE0F901F9018951F920F920FB60F9297
:1009E00011248F939F93AF93BF938091CD009091EB
:1009F000CE00A091CF00B091D000892B8A2B8B2BF9
:100A000091F18091CD009091CE00A091CF00B09156
:100A1000D000181619061A061B062CF58091CD0079
:100A20009091CE00A091CF00B091D0000197A10984
:100A3000B1098093CD009093CE00A093CF00B093E6
:100A4000D0008091CD009091CE00A091CF00B091C8
:100A5000D000892B8A2B8B2B31F48AB58F7E8ABDEF
:100A600089B78F7E89BFBF91AF919F918F910F9072
:100A70000FBE0F901F901895AF92CF92EF92FF92FA
:100A80000F931F93480F591F4017510784F00C0D07
:100A9000111D081719075CF0260F371F2E153F058B
:100AA00034F0EA0CF11C81E0E616F7060CF480E065
:100AB0001F910F91FF90EF90CF90AF900895E0912C
:100AC0004101F0914201DF011C96A817B907C4F05B
:100AD0003396840F911DE817F90794F48091430130
:100AE00090914401AC01445F5F4F4617570744F0B3
:100AF00049505109620F711D81E0461757070CF0EC
:100B000080E008958F73E82FF0E0E650FF4F4081BA
:100B100050E021E030E0822FBA01022E02C075952C
:100B200067950A94E2F760FF04C0213049F08250D3
:100B300008952F5F3F4F2830310569F788E0089509
:100B400080E00895FC019585992391F080898F5F5D
:100B5000808B87FD04C0913011F482E0858782810B
:100B600093818135910524F084E0848788E027CD46
:100B70000895EF920F931F9380914E01811131C020
:100B800080914D01811111C0609143017091440128
:100B90008091410190914201E091E100F091E200E9
:100BA000E0904F010EEF10E041C08150823008F01C
:100BB00042C02091520160914301709144018091A3
:100BC000410190914201E091E100F091E200E0905A
:100BD0004F01233018F40EED10E028C00EEB10E0AA
:100BE00025C0813089F46091430170914401809166
:100BF000410190914201E091E100F091E200E0902A
:100C00004F010EE910E012C08230A9F46091430157
:100C1000709144018091410190914201E091E10085
:100C2000F091E200E0904F010EE710E020E140E19A
:100C30008E1B9F0BD1DA1F910F91EF9008951F9398
:100C4000CF93DF93CDB7DEB760970FB6F894DEBFD2
:100C50000FBECDBF142F9C01240F311D1216130699
:100C60002CF58038910514F597FF03C0180F80E02C
:100C700090E09C01210F311D2138310514F010E85E
:100C8000181B9B01295F3F4F2734310578F477FF0C
:100C900002C060E070E005D7CE01019620E1FC01C2
:100CA00011922A95E9F7612F70E014D760960FB67C
:100CB000F894DEBF0FBECDBFDF91CF911F91089595
:100CC000DF92EF92FF920F931F93CF93DF93442312
:100CD00011F013E001C012E08F73282F30E0A9015A
:100CE00046505F4F7A01FA01008100FF41C0D62EC5
:100CF00009DF8830E9F18D15D8F1C82FD0E0812FB8
:100D000090E08D0D911DC817D90794F50E7FF7015E
:100D1000008386E054DC8091CB008F5F8093CB0012
:100D20008091E1009091E20080589F4F2091410115
:100D3000309142018217930718F48CE38093990154
:100D400033E0CC0FDD1F3A95E1F700E010E040E121
:100D5000BE01C80124E0880F991F2A95E1F76FDFD3
:100D60000F5F1F4F0830110591F78DE380939901B4
:100D7000DF91CF911F910F91FF90EF90DF90089539
:100D8000CF92DF92EF92FF920F931F93CF93DF9357
:100D9000EC018889893F14F489EF888BCF84E8813E
:100DA000F981EC0DF11DC7FCFA95D8884A815B8169
:100DB0004D0D511DD7FC5A951A8A9F01232F330FD1
:100DC000330B2595CF0103E0959587950A95E1F7BB
:100DD000182F1F73BA0183E0759567958A95E1F71F
:100DE000042F07708E2F8770F82E8C89DB01BB27AC
:100DF000002321F090E0880F991F019601C0880F11
:100E0000AA95EAF757FD02C0E62E02C080E0E12C69
:100E10008E7F612F70E01C14E4F4AD89A10FAF73D5
:100E2000B0E0A650BF4F9C91892399F1322F222721
:100E3000330FF3E0660F771FFA95E1F7260F371FA0
:100E400039832883112311F0115001C01FE382E080
:100E50001DC0CC2001F1DB01A650BF4F9C9189231E
:100E6000C1F01F5F103419F42F5F3F4F10E0322F95
:100E70002227330F812F90E073E0880F991F7A9516
:100E8000E1F7280F391F3983288388E08A8B1F8672
:100E900002C0F983E8832E2D30E0E12FF0E0D7FC8B
:100EA0003FC08D89280F311D81E090E001C0880F7F
:100EB0002A95EAF78E7FE650FF4F90819823A1F4A0
:100EC000E1E0E10FEF73F0E0E650FF4F90819823EF
:100ED00059F4FF20E9F0E2E0E10FEF73F0E0E650B3
:100EE000FF4F90818923A1F0188A1D8685E08E1519
:100EF00010F446E0E42E8E2D90E033E0880F991F29
:100F00003A95E1F79B838A838A8984608A8B42C001
:100F1000D1103EC08D8581113BC082E08D8738C0E5
:100F200081E090E00E2C01C0880F0A94EAF78E7FD2
:100F3000E650FF4F90819823A1F4E1E0E10FEF73B9
:100F4000F0E0E650FF4F9081982359F4FF2001F123
:100F5000E2E0E10FEF73F0E0E650FF4F908189236C
:100F6000B9F0188A82E08D87E3948E2D90E023E01B
:100F7000880F991F2A95E1F79B838A838B898823A1
:100F800011F088E01CDB8A8981608A8B188A02C094
:100F90005B834A838B898823C1F0402F6E2D812F7C
:100FA0008FDE402F6E2D81E0810F8ADEFF2069F0F9
:100FB000402F6E2D82E0810FDF91CF911F910F9115
:100FC000FF90EF90DF90CF907BCEDF91CF911F917C
:100FD0000F91FF90EF90DF90CF9008950F931F93A4
:100FE000CF93DF938B01C82FD0E0CC0FDD1FC60F4E
:100FF000D71F8C819D81FB01208131814091E100CF
:101000005091E200241B350B688579852817390734
:1010100029F4228133812617370751F040E10FDE92
:1010200068857985685F7F4F40E18C819D8107DE0F
:10103000F801808191812091E1003091E200821BD2
:10104000930B9D838C838281938199878887DF911D
:10105000CF911F910F9108951F93CF93DF9383E05A
:10106000A3D8EC0180E0A0D82AE034E0A901481B15
:10107000590BCA0126E130E0B901CDD5162F809178
:10108000C600811168C0CE010B96B901C4D5EB0131
:101090009B01332760FF08C082E080934D0181E00F
:1010A00080934F0183E012C062FF07C081E080930C
:1010B0004D0110924F018DEF09C08091500118161B
:1010C00014F4815003C0882319F08F5F809350017E
:1010D00021FF0CC080914E01811110C089EF8093D7
:1010E000510181E080934E0187E069DAC11106C0A9
:1010F00080914E01811102C010924D0112FF2BC050
:101100008091F000843039F51092F5008091410112
:10111000909142019C01205F3F4F3093E500209366
:10112000E40020914301309144013093E700209383
:10113000E60023E02093F4002093F3001092F000E7
:1011400020914F01211107C02DEF2093F3009093C0
:10115000E5008093E4008091C60010FF18C0811163
:1011600010C089E02CDA60E181E883D48CE38093BD
:10117000990160E181E87DD48DE38093990181E05C
:1011800003C08230C1F483E08093C60014C0813074
:1011900011F482E0F9CF833071F41092C6006FE74A
:1011A00081E867D48CE3809399016FE781E861D48B
:1011B0008DE380939901DF91CF911F910895CF9294
:1011C000DF92EF920F931F93CF936C01C62F809104
:1011D000DD009091DE0097FF06C0482F419570E03A
:1011E000C601089608C0009739F070E0482F9601B4
:1011F000281B390BC90123DD80916000813031F457
:101200006C2F70E0E12C06E310E011C0823011F089
:10121000843031F46C2F70E0E12C0EE210E007C056
:10122000833049F46C2F70E0E12C06E210E028E0F6
:1012300048E0C601D1D7CF911F910F91EF90DF9079
:10124000CF9008952F923F924F925F926F927F922C
:101250008F929F92AF92BF92CF92DF92EF92FF92C6
:101260000F931F93CF93DF9300D01F92CDB7DEB7BC
:101270002091E1003091E2003B832A83C90123E001
:10128000969587952A95E1F7382F3F73F32E8A813B
:101290009B8187709927332349F02FEF230F48EF65
:1012A0005FEF481B590B5B834A8309C0EE27FF277A
:1012B000E81BF90BFB83EA83EF2B31F020E0F1E12F
:1012C000FF0DF983F22E02C020E12983312C5981D0
:1012D000F51608F09FC08091DD009091DE0097FF29
:1012E00002C081E003C0892B21F08FEF8F0D8F7337
:1012F000382E8F2D8F7390E0AC0146505F4F5A010E
:10130000FA0180818170282ECC24C394D12C832DA6
:1013100090E09C0126503F4F49014A805B8038E0B5
:10132000430E511CF501808190E00C2C02C0959574
:1013300087950A94E2F780FF5DC04091DD005091EF
:10134000DE00360183E0660C771C8A95E1F757FFD3
:101350000FC0F401808190E00C2C02C09595879518
:101360000A94E2F780FD04C04195B301C20167DC35
:101370002091DD003091DE001216130694F4F40182
:10138000808190E00C2C02C0959587950A94E2F735
:1013900080FD07C0422FB3018A819B81821B930B82
:1013A0004EDCF501808190E096012150310902C0A8
:1013B000959587952A95E2F7E12C80FD03C00EE113
:1013C00010E002C00EE310E028E048E0B3018A819B
:1013D0009B8102D7222071F0F1E0CF1202C060E0C1
:1013E00005C06EEF6C0D660F660F660F8A819B81DC
:1013F000E6DE212C2FEFC21AD20A38E0C316D10440
:1014000009F090CF4A815B81485F5F4F5B834A83DD
:10141000F3945DCF0F900F900F90DF91CF911F91BC
:101420000F91FF90EF90DF90CF90BF90AF909F9083
:101430008F907F906F905F904F903F902F90089586
:10144000EF92FF920F931F93CF93DF93F82E80912B
:10145000E1009091E200F11020C02091DF00309176
:10146000E000A901481B590BCA014930510514F08D
:1014700088E090E09093DE008093DD008091DD00B5
:101480009091DE00883F9F4F34F488EF9FEF909358
:10149000DE008093DD008DE307C080589F4F90935E
:1014A000E2008093E1008CE380939901CBDE809190
:1014B000F000843019F18091E6009091E7008034CB
:1014C0009105E0F464EE70E08F2D88DD8091F500E9
:1014D0008A35A0F46091E6007091E7008091E40005
:1014E0009091E500E091E100F091E200E12C06E44A
:1014F00010E028E048E08E1B9F0B6ED661E471E09F
:101500008F2D6CDD36DBC7E5D1E08C85843049F169
:10151000BE018F2D63DD3C85E091E100F091E2009A
:1015200029896A817B8188819981333049F0EE2451
:10153000E394243008F4E12C0EE510E020E108C02B
:10154000685F7F4F24FF09C0E12C0EE410E028E023
:1015500040E18E1B9F0B40D604C040E18E1B9F0BC9
:101560006EDB669681E0C939D80779F68091E10093
:101570009091E200F11005C09093E0008093DF00AD
:1015800009C0805891099093E2008093E1008DE3B7
:1015900080939901DF91CF911F910F91FF90EF9070
:1015A0000895FF920F931F93CF93DF93142F70E052
:1015B00090E077D2D3E0C4E68AE0F82E812F6C2F3A
:1015C0001ED3082F90E066E070E0EFD266E070E096
:1015D0008B579F4F7FD2802F6C2FDED2181B8C2F02
:1015E0006F2D0DD3C82FD15049F7DF91CF911F91A7
:1015F0000F91FF90089578D77894BB24B394552425
:101600005A94B0E28B2EB3E09B2EC4EF6C2E77245D
:101610007394D3E04D2E1DEF312E0AE5202E1CDDF4
:101620008091C600811124C181E491E0A9DB809101
:10163000F000843091F184EE90E0A2DB8091E6002E
:101640009091E700CF9740F02092F5001092E700CC
:101650001092E6001092F4008091F60080FD409216
:10166000F40082FD3092F40081FD3092F30083FF9C
:1016700003C04092F30002C0882329F08091F50056
:10168000825E8093F5008091F5008F5F8093F50076
:10169000853618F024E02093F00081E491E052DADE
:1016A000C7E5D1E0D12C8C85843009F47CC0CE0113
:1016B00067DBCE0147DA8A8981FF02C05F8602C0FC
:1016C00083FDBF8688819981181619061CF019823E
:1016D0001882BF86E881F981CF01A3E095958795AF
:1016E000AA95E1F72091A1013091A2012A5D3F4F17
:1016F0008217930708F05F8699899F5F998B8C8585
:10170000811104C09A3058F0198A09C0833009F059
:101710004AC0993C08F447C084E08C8744C06A8181
:101720007B8120E140E1CF01CAD9882399F08091E3
:10173000510118166CF480914E01823049F48D2DC0
:1017400017D629EF20935101B0924E0187E001C0D6
:1017500088E035D78091F000811119C0E090E60053
:10176000F090E7000091E4001091E5006A817B8130
:1017700058E0A52EE8E0CE2E20E130E040E150E038
:101780008881998179D9882311F08D2DF1D58091A7
:10179000E1009091E2008897288139812817390764
:1017A00014F48D2DE5D5D394669683E0D8127BCFC3
:1017B00080915201863020F48F5F8093520102C0E5
:1017C000109252018091CC008F5F853018F4809385
:1017D000CC000CC01092CC00809160008F5F8530EF
:1017E00018F48093600002C0B09260008091CB003A
:1017F0008A508A3028F4709262006092610004C0BE
:10180000909262008092610080914101909142012A
:10181000813C91052CF41092E2001092E1000DC081
:10182000805C91092091E1003091E200281739078E
:1018300020F49093E2008093E1008091A1019091C7
:10184000A2012091E1003091E20043E03695279516
:101850004A95E1F72817390758F08896C7D580913F
:10186000A1019091A20140969093A2018093A101C1
:1018700080E0E6DD4091CB0060E08AE092DE60E04F
:1018800080E090E09CDC81E0DBDD8091C60081118E
:1018900003C08AE391E091D78AE991E08ED78091E5
:1018A000D9009091DA00A091DB00B091DC0040916A
:1018B000C2005091C3006091C4007091C500841BA8
:1018C000950BA60BB70B893A9146A105B105ECF231
:1018D0008091D9009091DA00A091DB00B091DC00FA
:1018E0008093C2009093C300A093C400B093C5003E
:1018F00096CEC09AC29AB89ABA9AC098C298880FDF
:10190000C29898E0C09887FF01C0C09AC29AC29856
:10191000880F9150B9F7C098C29AC2980895FC01F7
:10192000615008F41FC091918FEF890F8E3F58F0DE
:10193000C0989F3F09F4C09AC29898E0C29AC29892
:101940009150E1F70BC0C29828E0C09897FF01C002
:10195000C09AC29AC298990F2150B9F7C098C29AFA
:10196000C298DECF0895C098C29AC09ABA98C0981B
:1019700008951F93CF93DF93EB01142F809199016A
:10198000B8DF612FCE01CBDFDF91CF911F91EBCF7D
:10199000EF92FF920F931F93CF93DF93CDB7DEB7F4
:1019A0006A970FB6F894DEBF0FBECDBF8B017A01E8
:1019B00096E1E3E6F0E0DE01119601900D929A9532
:1019C000E1F780939901B898BA98C09AC29A809129
:1019D000990146E150E0BE016F5F7F4F90E0C9DFA3
:1019E000EF2861F01F8A87EA888F8091990142E091
:1019F00050E0BE01695E7F4F90E0BBDF012BB9F084
:101A00001F8A80EA888F8091990142E050E0BE01F0
:101A1000695E7F4F90E0ADDF80EC888F8091990107
:101A200042E050E0BE01695E7F4F90E0A2DF6A961F
:101A30000FB6F894DEBF0FBECDBFDF91CF911F91DF
:101A40000F91FF90EF900895CF93DF9300D0CDB723
:101A5000DEB719828A838091990142E050E0BE018D
:101A60006F5F7F4F90E085DF0F900F90DF91CF91F8
:101A70000895CF93DF9300D01F92CDB7DEB71982C0
:101A80008A836B838091990143E050E0BE016F5FD0
:101A90007F4F90E06EDF0F900F900F90DF91CF910E
:101AA0000895CF93DF93EC01CB0123E095958795C3
:101AB0002A95E1F7806BC8DF8C2F8F70C5DF34E08B
:101AC000D595C7953A95E1F78C2F8F708061DF919E
:101AD000CF91BACF0F931F93CF93DF93CDB7DEB7DC
:101AE00061970FB6F894DEBF0FBECDBF8B0120E427
:101AF0002983AB01BC01CE010296C3D0A8014F5F80
:101B00005F4F80919901BE016F5F7F4F90E031DFA1
:101B100061960FB6F894DEBF0FBECDBFDF91CF91B7
:101B20001F910F910895EF92FF920F931F93CF9300
:101B3000DF93CDB7DEB760970FB6F894DEBF0FBE68
:101B4000CDBF682F70E040E150E0CE010196A2D0F9
:101B500000E010E0B80180E090E0A3DF88E0E82E2C
:101B6000F12C60E170E0CE010196B4DF81E0E81A6B
:101B7000F108B9F7085F1F4F0034110559F7609657
:101B80000FB6F894DEBF0FBECDBFDF91CF911F918E
:101B90000F91FF90EF900895002480FD060E660FD0
:101BA00011F08695D1F7802D08950024552704C0A3
:101BB000080E591F880F991F009729F07695679591
:101BC000B8F37105B9F7802D952F0895EE27FF27FB
:101BD000AA27BB2708C0A20FB31FE41FF51F220FBF
:101BE000331F441F551F969587957795679598F3F2
:101BF0007040A9F7009799F7BD01CF010895991B8F
:101C000079E004C0991F961708F0961B881F7A95F3
:101C1000C9F780950895AA1BBB1B51E107C0AA1FF5
:101C2000BB1FA617B70710F0A61BB70B881F991F7D
:101C30005A95A9F780959095BC01CD010895A1E230
:101C40001A2EAA1BBB1BFD010DC0AA1FBB1FEE1F36
:101C5000FF1FA217B307E407F50720F0A21BB30B81
:101C6000E40BF50B661F771F881F991F1A9469F7FD
:101C700060957095809590959B01AC01BD01CF0159
:101C80000895FB01DC0102C001900D9241505040CB
:101C9000D8F70895DC0101C06D9341505040E0F742
:101CA0000895E199FECF9FBB8EBBE09A99278DB333
:101CB0000895A8E1B0E042E050E002C0DC01CB01B1
:101CC000FC01E199FECF06C0FFBBEEBBE09A319666
:101CD0000DB20D9241505040B8F70895F894FFCFDF
:101CE00001200300AEA83FD30040A1C8DA1281FF53
:101CF000A4A6D5808D14AF200200010102030204C6
:101D00000203020405003E5149453E0000427F4067
:101D100000006251494946002249494936001814D9
:101D2000127F10002F49494931003C4A494930008F
:101D30000171090503003649494936000649492918
:021D40001E0083
:00000001FF
